{
	"data": {
		"bytecode": {
			"linkReferences": {},
			"object": "609c610024600b82828239805160001a607314601757fe5b30600052607381538281f3fe730000000000000000000000000000000000000000301460806040526004361060335760003560e01c806396994b82146038575b600080fd5b603e6054565b6040518082815260200191505060405180910390f35b6000620151804281606157fe5b0490509056fea265627a7a723158201e5771c96c0020bef64a5130b7c1a297b8d39f583c1ae89bbbf9f8071d08f34564736f6c634300050c0032",
			"opcodes": "PUSH1 0x9C PUSH2 0x24 PUSH1 0xB DUP3 DUP3 DUP3 CODECOPY DUP1 MLOAD PUSH1 0x0 BYTE PUSH1 0x73 EQ PUSH1 0x17 JUMPI INVALID JUMPDEST ADDRESS PUSH1 0x0 MSTORE PUSH1 0x73 DUP2 MSTORE8 DUP3 DUP2 RETURN INVALID PUSH20 0x0 ADDRESS EQ PUSH1 0x80 PUSH1 0x40 MSTORE PUSH1 0x4 CALLDATASIZE LT PUSH1 0x33 JUMPI PUSH1 0x0 CALLDATALOAD PUSH1 0xE0 SHR DUP1 PUSH4 0x96994B82 EQ PUSH1 0x38 JUMPI JUMPDEST PUSH1 0x0 DUP1 REVERT JUMPDEST PUSH1 0x3E PUSH1 0x54 JUMP JUMPDEST PUSH1 0x40 MLOAD DUP1 DUP3 DUP2 MSTORE PUSH1 0x20 ADD SWAP2 POP POP PUSH1 0x40 MLOAD DUP1 SWAP2 SUB SWAP1 RETURN JUMPDEST PUSH1 0x0 PUSH3 0x15180 TIMESTAMP DUP2 PUSH1 0x61 JUMPI INVALID JUMPDEST DIV SWAP1 POP SWAP1 JUMP INVALID LOG2 PUSH6 0x627A7A723158 KECCAK256 0x1e JUMPI PUSH18 0xC96C0020BEF64A5130B7C1A297B8D39F583C BYTE 0xe8 SWAP12 0xbb 0xf9 0xf8 SMOD SAR ADDMOD RETURN GASLIMIT PUSH5 0x736F6C6343 STOP SDIV 0xc STOP ORIGIN "
		},
		"gasEstimates": {
			"creation": {
				"codeDepositCost": "31200",
				"executionCost": "109",
				"totalCost": "31309"
			},
			"external": {
				"zeroTime()": "199"
			}
		},
		"methodIdentifiers": {
			"zeroTime()": "96994b82"
		}
	},
	"abi": [
		{
			"constant": true,
			"inputs": [],
			"name": "zeroTime",
			"outputs": [
				{
					"internalType": "uint256",
					"name": "",
					"type": "uint256"
				}
			],
			"payable": false,
			"stateMutability": "view",
			"type": "function"
		}
	]
}